:020000040000FA
:1000000008160020C1010000C9010000CB0100005A
:1000100000000000000000000000000000000000E0
:10002000000000000000000000000000CD01000002
:100030000000000000000000CF010000D10100001E
:10004000EF0B00004D07000073070000170B0000C6
:10005000210B00002B0B0000350B000037040000C3
:10006000D3010000D3010000D3010000D301000040
:10007000D3010000D3010000D3010000D301000030
:10008000D3010000D3010000D3010000D301000020
:10009000D3010000D3010000D3010000D301000010
:1000A000D3010000D3010000D3010000D301000000
:1000B000D3010000D3010000D3010000D3010000F0
:1000C00000F002F800F050F80CA030C808382418EE
:1000D0002D18A246671EAB4654465D46AC4201D180
:1000E00000F042F87E460F3E0FCCB6460126334262
:1000F00000D0FB1AA246AB4633431847382B00000A
:10010000582B0000103A02D378C878C1FAD85207A9
:1001100001D330C830C101D504680C6070470000BD
:100120000023002400250026103A01D378C1FBD813
:10013000520700D330C100D50B60704710B5692954
:1001400002D102F07BFA10BD782902D102F0ACFA9C
:1001500010BD732902D102F085FB10BD002010BD37
:100160001FB51FBD10B510BD02F098FB1146FFF77B
:10017000F7FF00F07DF802F0B0FB03B4FFF7F2FFE9
:1001800003BC02F0B3FB000070B505460C461646F2
:1001900002E00FCC0FC5103E102EFAD2082E02D36B
:1001A00003CC03C5083E042E07D301CC01C5361F7E
:1001B00003E021782970641C6D1C761EF9D270BD95
:1001C0000748804707480047FEE7FEE7FEE7FEE7EF
:1001D000FEE7FEE704480549054A064B7047000064
:1001E00001020000C10000000806002008160020DF
:1001F00008120020081200200348044908607047D4
:10020000014802490860704780F0FA0200000020AF
:1002100010B504462146024802F0DCF810BD00008B
:100220000000104010B5044603E02078FFF7F0FF0F
:10023000641C20780028F8D110BD000070B5044679
:100240000D4609480068002804D029462046064A81
:100250001268904700BF054800680028FBD170BDB8
:1002600001490860704770470C000020080000201A
:10027000D8B0032676077C4816907CA103C90C9160
:100280000B907CA103C90A91099020227B4901A807
:10029000FFF77AFF00F07EFC00BF0020C0437849E2
:1002A000086000BF00F0FEF957905798002802D070
:1002B00074A0FFF7B7FF002000F0C7F8012000F09E
:1002C000C4F8022000F0C1F800F030FA00F08AFC17
:1002D000072000F0C1F80720694980390968012228
:1002E00082401140002901D0012100E000210F4689
:1002F00000BF384600F0ACFA57905798002802D05B
:100300006BA0FFF78FFF00F0C1FA169800681590F8
:100310000F21090515980840000D12907249159893
:1003200008400009149015980007000F13906F49BA
:1003300014984018002802D002280AD104E06CA1C9
:100340000DA802F0DDF90AE06CA10DA802F0D8F9C1
:1003500005E06DA10DA8149A02F0FCF800BF00BFE3
:10036000129800900DAA6BA117A8139B02F0F2F847
:1003700071A0FFF757FF17A8FFF754FF78A0FFF70A
:1003800051FF002F03D080A0FFF74CFF02E087A0B1
:10039000FFF748FF8DA0FFF745FF9AA0FFF742FF48
:1003A0009CA0FFF73FFF64A0FFF73CFF002404E0A0
:1003B000A00001A9085801C6641C082CF8D3002528
:1003C00003267607002407E002CEA00001AA1058F9
:1003D000814200D06D1C641C082CF5D3002D03D085
:1003E0008FA0FFF71FFF02E096A0FFF71BFF00F0B2
:1003F00056FA002208210BA800F081FA00220821F9
:1004000009A800F0C3FA0025002407E009A8005D50
:100410000BA9095D884200D06D1C641C082CF5D323
:10042000002D03D08DA0FFF7FDFE02E095A0FFF7A1
:10043000F9FE00BFFEE710B5072001218140104AF8
:10044000116000BF00F008F810BDC206D20E0121F5
:100450009140934A11607047C206D20E012191402B
:100460008F4A80321160704700ED00E0012345673C
:1004700089ABCDEFFFFFFFFFFFFFFFFFFC28000070
:1004800080E200E04572726F72202D2058696C691D
:100490006E78204750494F206661696C656420740E
:1004A0006F20696E697469616C6973650A00000088
:1004B0004572726F72202D2058696C696E782053D6
:1004C000504920636F6E74726F6C6C657273206636
:1004D00061696C656420746F20696E697469616C10
:1004E0006973650A00000000F0FF0000DFF3FFFF02
:1004F000436F727465782D4D31000000436F727444
:1005000065782D4D33000000556E6B6E6F776E2051
:100510002578000041726D2025732052657669733D
:10052000696F6E2025692056617269616E7420259D
:10053000690D0A0A000000002A2A2A2A2A2A2A2AE1
:100540002A2A2A2A2A2A2A2A2A2A2A2A2A2A2A2A0B
:100550002A2A2A2A2A2A2A2A2A2A2A2A0D0A00008C
:100560004578616D706C652064657369676E20669F
:100570006F7220446967696C656E7420533720621E
:100580006F6172640D0A00000A5632432D444150D7
:100590004C696E6B20626F617264206E6F742064B0
:1005A000657465637465640D0A0000000A56324381
:1005B0002D4441504C696E6B20626F6172642064FF
:1005C000657465637465640D0A00000055736520E9
:1005D00044495020737769746368657320616E6461
:1005E000207075736820627574746F6E7320746FF9
:1005F0000D0A636F6E74726F6C204C4544530D0A84
:100600000000000056657273696F6E20312E310D47
:100610000A00000074657374204164616D0D0A0066
:100620004552524F52202D204272616D20726561F9
:10063000646261636B20636F727275707465642E9F
:100640000D0A00004272616D20726561646261632F
:100650006B20636F72726563740D0A004552524FCE
:1006600052202D20426173652053504920726561EC
:10067000646261636B20636F727275707465642E5F
:100680000D0A000042617365205350492072656174
:10069000646261636B20636F72726563740D0A003C
:1006A00000E100E010B50021644800F0A9FD044617
:1006B000002C01D0012010BD0121614800F0A0FDF7
:1006C0000446002C01D00120F5E702215D4800F02E
:1006D00097FD0446002C01D00120ECE70F22D24305
:1006E0000121564800F0BAFA0022D24302215348B1
:1006F00000F0B4FA544A0121514800F0AFFA002248
:10070000D24302214E4800F0A9FA002201214D48AF
:1007100000F0A4FA00220121494800F05BFB00220E
:100720000121464800F056FB0020C4E710B5022125
:10073000434800F008FC0221404800F004FC404817
:1007400000F090FB3D4800F08DFB10BD08B5022184
:100750003A4800F001FB009001213848009A00F06F
:1007600039FB0321354800F072FC012000F05FF8EE
:1007700008BD7CB50221324800F0EEFA002839D0DD
:1007800002212F4800F0E8FA019001212C4800F0E6
:10079000E3FA00900198C007C00F002802D0072498
:1007A000012518E0022101980840002802D03824D1
:1007B000082510E0042101980840002803D0FF24F8
:1007C000C134402507E0082101980840002802D0E4
:1007D000072464028D0100982040064670192040CD
:1007E00006460098A0433043009001211448009A27
:1007F00000F0F0FA0321124800F029FC022000F07A
:1008000016F87CBD10B50446224601210D4800F0C3
:10081000E1FA10BD08B50221084800F09DFA0090E9
:10082000009A521C0121054800F0D4FA08BDC20606
:10083000D20E01219140054A11607047CC00002082
:10084000DC000020EC00002000F0FFFF80E200E070
:1008500070B505460021C04801F098FA0446002C06
:1008600001D0012070BDBC4800F013FDBA4800F073
:100870000CFEB949896908461C30002100F069F96D
:100880000121B54801F066F80020EBE710B5B24948
:10089000896908461C30002100F05BF910BD70B575
:1008A000AD4989690846603000F050F905460422D8
:1008B0002A431146A84A92691046603000F049F96F
:1008C0000620A649087001230022A34800F070FE0C
:1008D00004460620A1490870012300229E4800F02A
:1008E00067FE044605209D490870FF2048700223DA
:1008F0009B4A994800F05CFE0446204670BDFEB558
:1009000007460D461646944989690846603000F04E
:100910001DF900900423009A1A4311468E4A9269E9
:100920001046603000F015F9002D01D0FC2D01D9E2
:100930000120FEBD06208949087001230022864857
:1009400000F036FE01900220844908703002000E4B
:1009500048703004000E8870CE70002405E03978AD
:10096000201D7E4A11547F1C641CAC42F7D32B1D02
:1009700000227A49784800F01BFE0190002400E034
:10098000641C78488442FBD30198D2E7FEB5074641
:100990000D461646704989690846603000F0D6F861
:1009A00000900423009A1A4311466B4A926910463C
:1009B000603000F0CEF8002D01D0FC2D01D90120CF
:1009C000FEBD0320654908703002000E48703004F7
:1009D000000E8870CE70002404E00021201D5F4AC4
:1009E0001154641CAC42F8D32B1D5D4A5B495A4834
:1009F00000F0DEFD0190002405E05949201D085C4F
:100A000038707F1C641CAC42F7D30198D8E7F3B56B
:100A100095B00746002011904F482030447B204677
:100A2000E117490F0918CD10234600954EA101A8E2
:100A3000169A01F08FFD01A8FFF7F4FB464989697A
:100A40000846603000F082F812900423129A1A438C
:100A50001146414A92691046603000F07AF8002051
:100A600013901AE03C4989690846643000F06EF83A
:100A700006460820304000280CD1387814907F19A1
:100A80003549896908466830149900F062F8119870
:100A90004019119013984019139016991398884291
:100AA000E0D32D49896908467030002100F051F8E3
:100AB000294989690846603000F048F8FF21013172
:100AC000884312900223129A1A431146224A9269CD
:100AD0001046603000F03DF800BF1F4989690846A4
:100AE000203000F033F80646042030400028F4D0CF
:100AF000194989690846203000F028F80421084384
:100B000015490090896908462030009900F021F8C5
:100B1000119817B0F0BD10B5032000F010F810BD0B
:100B200010B5042000F00BF810BD10B5052000F042
:100B300006F810BD10B5062000F001F810BDC20681
:100B4000D20E012191400F4A11607047014608689A
:100B50007047024611607047FC00002058010020D9
:100B600058020020204E00006C656E2025692C2064
:100B70005769642025692C20696E63722025690DF0
:100B80000A00000080E200E01E4A116070471E4A21
:100B90001160704710B500211C4801F045FC044667
:100BA000002C01D0012010BD184A1949104601F04F
:100BB0002FFB164A1749104601F0F6FAFF220132C0
:100BC0001549124801F02DFA0020ECE70D4909689B
:100BD000124A1268881A002803D00A4909680F4A85
:100BE0001160704710B5094801F0C1FB10BD10B588
:100BF000064801F06AFB002001218140084A11608B
:100C000000BF10BD10000020140000205803002079
:100C10008F0B0000890B0000A404002018000020A6
:100C200080E200E070B504460D461646002C03D065
:100C300000208949086008E07D218848FFF7FEFA16
:100C4000012085490860002070BD2660A868A0606A
:100C5000E868E060824860600020F5E770B504460F
:100C60000D461646002C03D000207B49086007E0A3
:100C7000A2217A48FFF7E2FA01207749086070BDA7
:100C800077496068884203D100207349086007E013
:100C9000A3217248FFF7D2FA01206F490860EEE7FE
:100CA000012D04D0022D06D1E068012803D10020D7
:100CB0006949086007E0A4216848FFF7BFFA0120EE
:100CC00065490860DBE7691EC900091D22685018E4
:100CD000314600F0BDF800BFD1E770B504460D46BF
:100CE000002C03D000205C49086008E0C0215B486C
:100CF000FFF7A4FA012058490860002070BD584948
:100D00006068884203D100205349086008E0C1218F
:100D10005248FFF793FA01204F4908600020EDE7A1
:100D2000012D04D0022D06D1E068012803D1002056
:100D30004949086008E0C2214848FFF77FFA0120CE
:100D4000454908600020D9E7691EC900091D2268CD
:100D5000501801680846D1E770B504460D46002CCE
:100D600003D000203C49086008E0DA213B48FFF747
:100D700065FA012038490860002070BD3849606874
:100D8000884203D100203449086008E0DB21334861
:100D9000FFF754FA0120304908600020EDE7012DEB
:100DA00004D0022D06D1E068012803D100202A4991
:100DB000086008E0DC212948FFF740FA01202649B5
:100DC00008600020D9E7691EC90022685018016830
:100DD0000846D2E770B504460D461646002C03D0EF
:100DE00000201D49086007E0F6211C48FFF726FA9D
:100DF00001201949086070BD19496068884203D113
:100E000000201549086007E0F7211448FFF716FA9B
:100E1000012011490860EEE7012D04D0022D06D112
:100E2000E068012803D100200B49086007E0F821A1
:100E30000A48FFF703FA012007490860DBE7691E4B
:100E4000C90022685018314600F002F800BFD2E70E
:100E50000246116070470000040000204429000091
:100E60001111111110B50446002C03D00020D849EF
:100E7000086007E05F21D748FFF7E0F90120D44977
:100E8000086010BDD4496068884203D10020D04971
:100E9000086007E06021CF48FFF7D0F90120CC4976
:100EA0000860EEE7A068012803D10020C849086067
:100EB00007E06121C748FFF7C1F90120C449086074
:100EC000DFE721680846FF301D300121C90700F027
:100ED0007BF900BFD5E710B50446002C03D00020F5
:100EE000BB49086007E07A21BA48FFF7A7F901205B
:100EF000B749086010BDB8496068884203D1002036
:100F0000B349086007E07B21B248FFF797F9012059
:100F1000AF490860EEE7A068012803D10020AC4982
:100F2000086007E07C21AB48FFF788F90120A84959
:100F30000860DFE721680846FF301D30002100F01F
:100F400043F900BFD6E770B504460D46002C03D028
:100F500000209F49086007E098219E48FFF76EF93E
:100F600001209B49086070BD9B496068884203D19D
:100F700000209749086007E099219648FFF75EF93D
:100F8000012093490860EEE7A068012803D1002002
:100F90008F49086007E09A218E48FFF74FF901203A
:100FA0008B490860DFE721680846FF30293000F0F0
:100FB00008F9064632462A43114622681046FF3099
:100FC000293000F001F900BFCDE770B504460D46A9
:100FD000002C03D000207E49086007E0BC217D483A
:100FE000FFF72CF901207A49086070BD7A496068E2
:100FF000884203D100207649086007E0BD2175488A
:10100000FFF71CF9012072490860EEE7A06801288B
:1010100003D100206E49086007E0BE216D48FFF74C
:101020000DF901206A490860DFE721680846FF30B2
:10103000293000F0C6F806463246AA431146226817
:101040001046FF30293000F0BFF800BFCDE770B583
:1010500004460D46002C03D000205D49086007E0DF
:10106000DF215C48FFF7EAF801205949086070BDAC
:1010700059496068884203D100205549086007E05B
:10108000E0215448FFF7DAF8012051490860EEE703
:10109000A068012803D100204D49086007E0E12144
:1010A0004C48FFF7CBF8012049490860DFE7216889
:1010B0000846FF30213000F084F8064632462A40C8
:1010C000114622681046FF30213000F07DF800BF45
:1010D000CDE710B50446002C03D000203C49086041
:1010E00009E0FF2103313B48FFF7A8F80120384908
:1010F0000860002010BD38496068884203D1002094
:101100003349086009E0FF2104313248FFF796F8BF
:1011100001202F4908600020ECE7A068012803D1D6
:1011200000202B49086009E0FF2105312948FFF71D
:1011300085F80120264908600020DBE72168084681
:10114000FF30293000F03DF8D4E710B50446002CFC
:1011500003D000201E49086009E0FF2120311D480E
:10116000FFF76CF801201A490860002010BD1A49E9
:101170006068884203D100201549086009E0FF211A
:1011800021311448FFF75AF8012011490860002066
:10119000ECE7A068012803D100200D49086009E0B0
:1011A000FF2122310B48FFF749F801200849086068
:1011B0000020DBE721680846FF30213000F001F80D
:1011C000D4E7014608687047024611607047000086
:1011D00004000020902900001111111110B50246E1
:1011E0000020002108E00B01164CE35A934202D183
:1011F0000B01181902E0491C0329F4DB00BF10BDE4
:1012000070B505460E46002D03D000200E4908603B
:1012100008E08F210D48FFF711F801200A49086006
:10122000002070BD3046FFF7D9FF0446002C02D1E4
:1012300068600220F5E7214628466268FFF7F2FC65
:10124000EFE700001C00002004000020E02900005F
:1012500070B50446A26910467030216B00F07CFD29
:10126000A1690846603000F074FD85B2FF200130AE
:101270000543606A002801D060200543A169084643
:101280006030294600F068FD002060642064A0649E
:1012900070BD10B50446002C03D00020FE49086044
:1012A00008E0FF21B831FD48FEF7C8FF0120FA49E8
:1012B000086010BDFA49E069884203D10020F64970
:1012C000086008E0FF21B931F448FEF7B7FF0120BC
:1012D000F1490860EDE72046FFF7BAFF00202062E1
:1012E000206B6063A169084640300A2100F034FD9C
:1012F00000BFDEE770B504460D461646E949E748EB
:10130000FEF79CFF0120E449086070BDF7B582B08C
:1013100004460D46002C03D00020DF49086009E098
:10132000AD21DE48FEF78AFF0120DB49086000207E
:1013300005B0F0BDDC49206A884201D10520F7E7FD
:1013400000202062A064D948E0640020A063E0632C
:10135000206460640498A061A8686062E868A06284
:10136000297C2C200155687C002803D108212D20E0
:10137000015502E0697C2D200155A97C2E200155E4
:1013800068696065297E58200155C548E0612C20B8
:10139000015D01208840401E2063206B60630020B7
:1013A00020606060A060E06020616061687E01286C
:1013B00066D1A1690846603000F0CBFC0646662085
:1013C0000643A16908466030314600F0C5FC9F2104
:1013D000684601710021417181716A461179A269E3
:1013E0001046683000F0B8FC6A465179A269104690
:1013F000683000F0B1FC6A469179A2691046683005
:1014000000F0AAFCA1690846603000F0A2FC064684
:10141000FF210131304688430646A1690846603005
:10142000314600F099FCA1690846603000F091FC5B
:101430000646FF2001300643A16908466030314668
:1014400000F08AFCA1690846643000F082FC07467F
:10145000F807C00F002804D1A16908466C3000F0DD
:1014600078FCA1690846643000F073FC0746F80771
:10147000C00F002804D1A16908466C3000F069FC57
:101480002046FFF706FF002052E770B50446002C07
:1014900003D000208049086009E0FF213A317F48ED
:1014A000FEF7CCFE01207C490860002070BD7C491D
:1014B000E069884203D100207749086009E0FF21F4
:1014C0003B317648FEF7BAFE0120734908600020E0
:1014D000ECE77549206A884201D10520E6E7A16959
:1014E0000846283000F035FC714908430646A169DA
:1014F00008462830314600F02FFC6B482062A16975
:101500000846603000F025FC054662200543A169CD
:1015100008466030294600F01FFCA16908461C30CF
:101520000121C90700F018FC0020BFE770B5044690
:10153000002C03D000205849086009E0FF218831C1
:101540005648FEF77BFE012053490860002070BD1D
:101550005349E069884203D100204F49086009E0FF
:10156000FF2189314D48FEF769FE01204A49086094
:101570000020ECE7A06C002801D01520E7E7A16966
:1015800008461C30002100F0E7FBA16908466030E6
:1015900000F0DFFB054602232A469A431146A26962
:1015A0001046603000F0D8FB0020206200BFCEE77C
:1015B000FFB585B004461F4600200290002C02D0E3
:1015C0003549086009E03B493448FEF737FE012001
:1015D00031490860002009B0F0BD0698002803D00A
:1015E00000202D49086009E03249491C2B48FEF7CC
:1015F00025FE0120284908600020ECE7002F03D0D9
:1016000000202549086009E08B2189002348FEF766
:1016100015FE0120204908600020DCE72049E06930
:10162000884203D100201C49086009E02149C91CF7
:101630001A48FEF703FE0120174908600020CAE798
:101640001949206A884201D00620C4E7A06C00280E
:1016500001D01520BFE7A16908461C3000F079FBD6
:101660000121C907884201D1012000E00020049037
:10167000A16908461C30002100F06EFBA1690846F4
:10168000603000F066FB064604203040002824D07D
:10169000F007C00F00280FE004000020342A0000EB
:1016A000111111111B04000022222222F512000048
:1016B0002B2000002A0200000FD1216B606B8842B2
:1016C0000BD10498012806D1A16908461C300121DC
:1016D000C90700F041FBF9487DE70120A0640698A6
:1016E000A0630798E063276467642D20055DA16906
:1016F0000846643000F02DFB039024E0082D03D150
:10170000A06B007802900AE0102D03D1A06B008836
:10171000029004E0202D02D1A06B00680290A16924
:1017200008466830029900F017FBE910A06B4018DA
:10173000A063E910606C401A6064A16908466430D7
:1017400000F007FB0390082103980840002802D10D
:10175000606C0028D2D1A26910467030616B00F035
:10176000FBFAA1690846603000F0F3FA0646FF2153
:101770000131304688430646A1690846603031464B
:1017800000F0EAFA0498012815D1A169084628302A
:1017900000F0DFFA042108430190A16908462830CF
:1017A000019900F0D9FAA16908461C300121C90746
:1017B00000F0D2FACCE0B1E000BFA16908462030C9
:1017C00000F0C7FA03900421039808400028F4D0E1
:1017D000A1690846203000F0BCFA042108430190BA
:1017E000A16908462030019900F0B6FAA1690846BF
:1017F000603000F0AEFA0646FF2201323243114655
:10180000A2691046603000F0A7FAA169084664306A
:1018100000F09FFA039034E0A16908466C3000F0B4
:1018200098FA0290082D09D1E06B00281DD002988B
:10183000C1B2E26B501CE063117016E0102D09D1AB
:10184000E06B002811D00298E16B0880E06B801CEF
:10185000E0630AE0202D08D1E06B002805D0029853
:10186000E16B0860E06B001DE063E910206940183F
:101870002061E8103F1AA1690846643000F069FA57
:1018800003900398C007C00F0028C5D0606C0028E3
:1018900044D0A1690846643000F05BFA039024E06C
:1018A000082D03D1A06B007802900AE0102D03D11F
:1018B000A06B0088029004E0202D02D1A06B00688C
:1018C0000290A16908466830029900F045FAE910D3
:1018D000A06B4018A063E910606C401A6064A169B5
:1018E0000846643000F035FA039008210398084058
:1018F000002802D1606C0028D2D1A169084660306E
:1019000000F027FA0646FF2101313046884306469B
:10191000A16908466030314600F01EFA002F00D061
:101920004AE7A1690846603000F013FA0646FF2234
:10193000013232431146A2691046603000F00CFAC1
:10194000A26910467030216B00F006FA0020A064F6
:10195000002040E6F8B504460E46002C03D00020D7
:101960005749086009E00721C9015648FEF766FC9F
:101970000120534908600020F8BD5349E0698842BE
:1019800003D100204E49086008E050494D48FEF759
:1019900055FC01204A4908600020EDE7A06C0028B2
:1019A00001D01520E8E700272C20005D451E07E048
:1019B0003046E840C007C00F002800D07F1C6D1ED5
:1019C000002DF5DA012F02DD3C48401CD4E7F0433E
:1019D00060630020D0E710B50446002C03D000203F
:1019E0003749086009E039493E313648FEF726FCA0
:1019F000012033490860002010BD3349E069884266
:101A000003D100202E49086009E00F2189012D48EB
:101A1000FEF714FC01202A4908600020ECE7606B07
:101A2000C043E9E770B504460E461546002C03D0C6
:101A300000202349086008E024497C312148FEF752
:101A4000FDFB01201E49086070BD002D03D0002061
:101A50001B49086008E01D497D311A48FEF7EEFB7E
:101A6000012017490860EFE71749E069884203D170
:101A700000201349086008E014497E311148FEF740
:101A8000DDFB01200E490860DEE7E564266500BF46
:101A9000DAE7F1B584B0049C0027049C002C03D045
:101AA00000200749086013E0044929390548FEF77A
:101AB000C5FB01200249086005B0F0BD83040000A9
:101AC00004000020342A00001111111181030000CC
:101AD0006069401C6061A1690846203000F039F956
:101AE0000546A1690846203000F033F928430090EC
:101AF000A16908462030009900F02EF9E807C00FD0
:101B0000002815D0616C206C401A03902068401C9E
:101B100020602046FFF79CFBA1690846643000F076
:101B200018F9206D0090E36C8D49039A9847C3E73C
:101B30002D20065D04202840002803D140202840A5
:101B400000287DD0A1690846603000F002F90290BB
:101B5000FF230133029A1A431146A26910466030EE
:101B600000F0FAF8A1690846643000F0F2F801903C
:101B70002EE0A16908466C3000F0EBF80746082E0D
:101B800007D1E06B002819D0E26B501CE06317709E
:101B900014E0102E08D1E06B00280FD0E16B0F800D
:101BA000E06B801CE06309E0202E07D1E06B002889
:101BB00004D0E06B0760E06B001DE063F11020696A
:101BC00040182061A1690846643000F0C2F8019015
:101BD0000198C007C00F0028CBD0606C002839D016
:101BE000A1690846643000F0B4F8019021E0082EA5
:101BF00002D1A06B077808E0102E02D1A06B0788F5
:101C000003E0202E01D1A06B0768A1690846683067
:101C1000394600F0A1F8F110A06B4018A063F11054
:101C2000606C401A6064A1690846643000F091F865
:101C30000190082101980840002804D1606C00E060
:101C400025E00028D3D1A16908466030029900F050
:101C500083F81CE0A26910467030216B00F07CF81C
:101C6000A1690846283000F074F8042188430090E8
:101C7000A16908462830009900F06EF80020A064A1
:101C8000226C206D00900921C901E36C98478020E7
:101C90002840002806D0206D009000229121C90024
:101CA000E36C9847FF2001302840002806D0206DC3
:101CB000009000222A490A31E36C9847022028400C
:101CC00000280DD0616C206C401A0390E068401C25
:101CD000E060206D0090E36C21490831039A984739
:101CE0002020284000280DD0616C206C401A039001
:101CF000A068401CA060206D0090E36C1849C91CCE
:101D0000039A98470820284000280DD0616C206C69
:101D1000401A03906068401C6060206D0090E36C86
:101D20000F49891C039A9847012040032840002846
:101D30000DD0616C206C401A03906068401C60609C
:101D4000206D0090E36C06490B31039A984700BF61
:101D5000B2E601460868704702461160704700000D
:101D60007F04000010B50246002000210AE01C2379
:101D70004B43164CE35A934203D11C234B4318198F
:101D800002E0491C0429F2D300BF10BD70B505461E
:101D90000E46002D03D000200D49086008E08A217E
:101DA0000C48FEF74BFA012009490860002070BD7D
:101DB0003046FFF7D7FF0446002C01D10220F6E79A
:101DC000214628466268FFF7A1FAF0E74C000020A0
:101DD00004000020802A000070B504460D46FF2153
:101DE000C031ED48FEF72AFA0120EC49086070BDC9
:101DF00070B504460E461546002C03D00020E74976
:101E0000086008E08F21E448FEF718FA0120E34952
:101E10000860002070BD002060620021E162A162C4
:101E20002063A1636163DE482062E561DD48E06311
:101E30006064E16908460C30002100F0A9F92046F1
:101E400000F057FB0020E5E7F8B504460025E169FE
:101E50000846083000F099F9C6B2E1690846083032
:101E600000F093F9C6B2E16908460C30002100F099
:101E70008FF937460CE0626A515DE269101D00F08F
:101E800087F96D1CE1690846083000F07EF9C6B29A
:101E900008203040002802D1E06AA842EBD8606AEE
:101EA00040196062E06A411BE162A0684019A060CD
:101EB00010200740E16908460C30394600F068F907
:101EC0002846F8BDF8B504460E461546002C03D04A
:101ED0000020B249086008E0DE21AF48FEF7AEF905
:101EE0000120AE4908600020F8BD002E03D000207C
:101EF000AA49086008E0DF21A748FEF79FF9012002
:101F0000A64908600020EFE7A549206A884203D16E
:101F10000020A249086008E0E0219F48FEF78EF902
:101F200001209E4908600020DEE7002D03DB002031
:101F30009A49086008E0E1219748FEF77FF90120FF
:101F4000964908600020CFE7E1690846083000F0B4
:101F50001CF90746E16908460C30002100F018F929
:101F6000A562E562666210200740E16908460C3010
:101F7000394600F00DF92046FFF766FF0090009803
:101F8000B2E7F8B504460025E1690846083000F0DC
:101F9000FCF8C7B2E16908460C30002100F0F8F8FF
:101FA00028E0E1690846083000F0EFF8C6B2F00713
:101FB000C00F00281DD0E06900F0E7F8C1B2284644
:101FC0006D1C226B115420203040002802D0206963
:101FD000401C206180203040002802D06069401CF5
:101FE000606140203040002804D0A069401CA061FE
:101FF00000E002E0A06BA842D3D800BF206B4019DC
:102000002063A06B411BA163E0684019E0601020D1
:102010000740E16908460C30394600F0B9F8284617
:10202000F8BDF8B504460E461546002C03D0002036
:102030005A49086009E0FF2132315748FEF7FEF89F
:102040000120564908600020F8BD002E03D0002072
:102050005249086009E0FF2133314F48FEF7EEF89E
:1020600001204E4908600020EEE74D49206A884271
:1020700003D100204949086009E0FF213431464876
:10208000FEF7DCF80120454908600020DCE7002D60
:1020900003DB00204149086009E0FF2135313E485B
:1020A000FEF7CCF801203D4908600020CCE7E1694B
:1020B0000846083000F069F80746E16908460C3028
:1020C000002100F065F86563A563266310200740D2
:1020D000E16908460C30394600F05AF82046FFF70F
:1020E00050FF00900098AFE770B50446002C03D075
:1020F00000202A49086008E0FF216F312648FEF7DA
:102100009DF801202549086070BD2549206A884254
:1021100003D100202149086008E0FF2170311E48EA
:10212000FEF78CF801201D490860EDE7E1690846DB
:10213000083000F02AF80546102005402A460323FF
:102140001A431146E26910460C3000F021F800BF36
:10215000DAE770B50446002C03D000200F49086070
:1021600009E0FF219A310C48FEF768F801200B497D
:102170000860002070BDE1690846083000F005F8ED
:102180000546A90801208843F4E70146086870471E
:102190000246116070470000D02A000004000020B1
:1021A00011111111D91D000070B504460D461646D7
:1021B000002C03D000208449086007E06821834890
:1021C000FEF73CF801208049086070BD002D03D067
:1021D00000207D49086007E069217C48FEF72EF861
:1021E000012079490860F0E77949206A884203D1E3
:1021F00000207549086007E06A217448FEF71EF860
:10220000012071490860E0E7E563266400BFDCE770
:1022100070B504460D461646002C03D000206A49CE
:10222000086007E089216948FEF708F8012066493F
:10223000086070BD002D03D000206349086007E0EE
:102240008A216248FDF7FAFF01205F490860F0E744
:102250005F49206A884203D100205B49086007E09B
:102260008B215A48FDF7EAFF012057490860E0E753
:102270006564A66400BFDCE770B50446E06A002828
:1022800007D1A56A0021A1622946626CA06C904723
:1022900002E02046FFF7D8FD2068401C206070BD9A
:1022A00070B50446A06B002802D02046FFF769FEF7
:1022B000A06B002805D1656BA36BE91AE26B206C5B
:1022C00090476068401C606070BD70B50446002C8B
:1022D00003D000203C49086007E0A6213B48FDF7F9
:1022E000ADFF01203849086070BDE169084608303B
:1022F000056800BFA807800F002802D02046FFF71E
:10230000CFFF04202840002805D0A06A002802D072
:102310002046FFF7B1FF00BFE6E710B50446002CEA
:1023200003D000202849086008E0FF212631274813
:10233000FDF784FF01202449086010BD2449206A6C
:10234000884203D100202049086008E0FF2127319E
:102350001E48FDF773FF01201B490860EDE7E169A6
:1023600008460C30002100F02CF800BFE5E710B55E
:102370000446002C03D000201349086008E0FF2128
:1023800044311248FDF75AFF01200F49086010BD83
:102390000F49206A884203D100200B49086008E0F9
:1023A000FF2145310948FDF749FF01200649086032
:1023B000EDE7E16908460C30102100F002F800BF9B
:1023C000E5E702461160704704000020242B00005E
:1023D0001111111100BF00BF826808231A40082A9A
:1023E000F9D0021D1346196000BF7047014600BFB7
:1023F00000BF8868C007C00F0028F9D000BF086878
:10240000C0B2704710B502460020002108E00B0161
:10241000154CE35A934202D10B01181902E0491CF2
:102420000029F4D000BF10BD70B505460E46002D42
:1024300003D000200D49086008E085210C48FDF715
:10244000FDFE012009490860002070BD3046FFF7FD
:10245000D9FF0446002C01D10220F6E72146284688
:102460006268FFF7C5FCF0E7BC0000200400002014
:102470007C2B000070B504460D46002C03D00020D4
:102480003149086007E060213048FDF7D7FE0120A0
:102490002D49086070BD002D03D000202A49086036
:1024A00007E061212948FDF7C9FE0120264908609F
:1024B000F0E72749206A884203D1002022490860BA
:1024C00007E062212148FDF7B9FE01201E4908609E
:1024D000E0E72068286060686860A068A860E0683D
:1024E000E86020692861A069A8616069686100BF2F
:1024F000D0E710B50446002C03D000201249086034
:1025000007E083211148FDF799FE01200E4908607C
:1025100010BD0F49206A884203D100200A49086093
:1025200007E084210948FDF789FE0120064908607B
:10253000EEE7002020606060A060E0602061A061A4
:10254000606100BFE4E7000004000020D82B000019
:10255000111111110FB41CB5074B06AA7B44694633
:102560000090059800F053F90020694600F062F9E8
:102570001CBC08BC04B01847D5020000F8B50E46D4
:102580000446002020622046E1688847002829D0C0
:10259000252802D06268A16820E0E1682046002773
:1025A000884705001ED028464138192802D801273F
:1025B000FF0220353246204627602946FDF7BEFD42
:1025C000002808D0012804D0F61DF608F6000836C9
:1025D000D9E7361DD7E762682846A1689047206A88
:1025E000401CCFE7206AF8BD70B50C460546012AAD
:1025F00005D02878800600D5EA69002302E001238F
:1026000005E05B1C934202D2E05C0028F9D1A86986
:10261000E618C01AA861286AC01828622846C04671
:10262000C04604E06A682078A968641C9047B442F8
:10263000F8D32846C046C04670BD0000F7B5002557
:1026400075291068009914A611D0C046C04600280C
:1026500002DA404211A608E0009909688A0701D50C
:102660000FA602E0490704D50EA6012501E0C046E9
:10267000C046009F0024243704E000F0F7F8303112
:102680003955641C0028F8D12B4632462146009863
:1026900000F05FF8FEBD0000000000002D0000000B
:1026A0002B0000002000000070B504460D462146B6
:1026B0001068C046C0462188090502D50F4A7A44F1
:1026C00002E00E4A7A440E3223460021243305E00C
:1026D00006070009360F965D5E54491C0028F7D1A5
:1026E00020780023000705D5702D03D0002901D0E4
:1026F00002231132204600F02CF870BD5A0200006F
:10270000034670B502460B439B070FD10E4CE60102
:1027100000E008C208C91D1B9D433542F9D0D9B25B
:102720001170521C00290DD01B0AF8E70B78491CC8
:102730001370521C002B05D00B78491C1370521CCF
:10274000002BF3D170BD00000101010170477047FB
:102750007047FFB504460D4681B0243000902168D3
:10276000880604D51022E0699143216000E0012031
:10277000A84201DD471B00E000270498A1697A19EF
:102780001018081AA0612078C00602D42046C0465E
:10279000C046002608E003986268A168805D904703
:1027A000206A401C761C206204988642F3DB207865
:1027B000C0060AD52046C046C04606E06268A16849
:1027C00030209047206A401C206238467F1E002837
:1027D000F4DC07E000986268A168405D9047206AD9
:1027E000401C206228466D1E0028F3DC2046C046AF
:1027F000C0462078000602D5022005B0F0BD0120B9
:10280000FBE7000001694A1C02610878704700B5C7
:102810008FB00291002105910549019379440391FC
:10282000114604906846FFF7A9FE0FB000BD0000F6
:10283000E5FFFFFF0A681070521C0A60704710B570
:102840004369002B02D0C046C04601E0FFF7CCFE32
:10285000012010BD1278014624310A7000224A700E
:102860000122ECE711680022D243E8E70146800824
:10287000081A02091018020A1018020C1018C008D1
:10288000820012185200891A01E0401C0A390A29F4
:10289000FBD2704700487047A40500207546FFF73B
:1028A000F9FFAE46050069465346C008C00085469C
:1028B00018B020B5FDF78EFC60BC00274908B6466D
:1028C0000026C0C5C0C5C0C5C0C5C0C5C0C5C0C53F
:1028D000C0C5403D49008D46704710B50446C0460E
:1028E000C0462046FDF749FC10BD000001491820F4
:1028F000ABBEFEE7260002007047000067452301DB
:10290000EFCDAB89EFBEADDEEDDAEBFEA53CF0A579
:1029100021436587A90BDCFE080402013031323304
:102920003435363738394142434445464030580003
:102930003031323334353637383961626364656635
:10294000403078002E2E5C73646B5F776F726B7310
:10295000706163655C7374616E64616C6F6E655FFA
:102960006273705F305C436F727465785F4D315F86
:10297000305C6C69627372635C6770696F5F763438
:102980005F335C7372635C786770696F2E630000FD
:102990002E2E5C73646B5F776F726B73706163650F
:1029A0005C7374616E64616C6F6E655F6273705F9F
:1029B000305C436F727465785F4D315F305C6C6979
:1029C000627372635C6770696F5F76345F335C73E8
:1029D00072635C786770696F5F696E74722E6300F2
:1029E0002E2E5C73646B5F776F726B7370616365BF
:1029F0005C7374616E64616C6F6E655F6273705F4F
:102A0000305C436F727465785F4D315F305C6C6928
:102A1000627372635C6770696F5F76345F335C7397
:102A200072635C786770696F5F73696E69742E6337
:102A3000000000002E2E5C73646B5F776F726B7307
:102A4000706163655C7374616E64616C6F6E655F09
:102A50006273705F305C436F727465785F4D315F95
:102A6000305C6C69627372635C7370695F76345F4B
:102A7000345C7372635C787370692E6300000000CD
:102A80002E2E5C73646B5F776F726B73706163651E
:102A90005C7374616E64616C6F6E655F6273705FAE
:102AA000305C436F727465785F4D315F305C6C6988
:102AB000627372635C7370695F76345F345C7372E7
:102AC000635C787370695F73696E69742E6300006C
:102AD0002E2E5C73646B5F776F726B7370616365CE
:102AE0005C7374616E64616C6F6E655F6273705F5E
:102AF000305C436F727465785F4D315F305C6C6938
:102B0000627372635C756172746C6974655F76334D
:102B10005F325C7372635C78756172746C69746542
:102B20002E6300002E2E5C73646B5F776F726B7385
:102B3000706163655C7374616E64616C6F6E655F18
:102B40006273705F305C436F727465785F4D315FA4
:102B5000305C6C69627372635C756172746C697409
:102B6000655F76335F325C7372635C787561727433
:102B70006C6974655F696E74722E63002E2E5C73CF
:102B8000646B5F776F726B73706163655C737461A4
:102B90006E64616C6F6E655F6273705F305C436F13
:102BA000727465785F4D315F305C6C69627372631B
:102BB0005C756172746C6974655F76335F325C73E7
:102BC00072635C78756172746C6974655F73696E49
:102BD00069742E63000000002E2E5C73646B5F77B7
:102BE0006F726B73706163655C7374616E64616C4A
:102BF0006F6E655F6273705F305C436F727465788F
:102C00005F4D315F305C6C69627372635C756172D9
:102C1000746C6974655F76335F325C7372635C7881
:102C2000756172746C6974655F73746174732E631B
:102C300000000000542C000000000020CC00000028
:102C400004010000202D0000CC0000203C150000F5
:102C50002001000080F0FA020000000001000000E6
:102C60000000000000000000000000000000000064
:102C70000000000000001140010000000100000001
:102C800001000000000012400100000001000000EF
:102C900002000000000001400000000000000000F1
:102CA00000000000000013400100000000000000D0
:102CB0000108020000000000000100000100000007
:102CC00000000240010000000000000001080200B6
:102CD00000000000000000000200000000000340AF
:102CE00001000000000000000108000000000000DA
:102CF0000000000003000000000000400100000090
:102D000000000000010802010000000001000000B6
:102D1000000000000000104000C201000000080098
:04000005000001C135
:00000001FF
